{
  "_format": "hh-sol-artifact-1",
  "contractName": "ERC20Token",
  "sourceName": "contracts/ERC20Token.sol",
  "abi": [
    {
      "inputs": [
        {
          "internalType": "string",
          "name": "_name",
          "type": "string"
        },
        {
          "internalType": "string",
          "name": "_symbol",
          "type": "string"
        },
        {
          "internalType": "uint256",
          "name": "_initialSupply",
          "type": "uint256"
        }
      ],
      "stateMutability": "nonpayable",
      "type": "constructor"
    },
    {
      "anonymous": false,
      "inputs": [
        {
          "indexed": true,
          "internalType": "address",
          "name": "owner",
          "type": "address"
        },
        {
          "indexed": true,
          "internalType": "address",
          "name": "spender",
          "type": "address"
        },
        {
          "indexed": false,
          "internalType": "uint256",
          "name": "value",
          "type": "uint256"
        }
      ],
      "name": "Approval",
      "type": "event"
    },
    {
      "anonymous": false,
      "inputs": [
        {
          "indexed": true,
          "internalType": "address",
          "name": "from",
          "type": "address"
        },
        {
          "indexed": true,
          "internalType": "address",
          "name": "to",
          "type": "address"
        },
        {
          "indexed": false,
          "internalType": "uint256",
          "name": "value",
          "type": "uint256"
        }
      ],
      "name": "Transfer",
      "type": "event"
    },
    {
      "inputs": [
        {
          "internalType": "address",
          "name": "_owner",
          "type": "address"
        },
        {
          "internalType": "address",
          "name": "_spender",
          "type": "address"
        }
      ],
      "name": "allowance",
      "outputs": [
        {
          "internalType": "uint256",
          "name": "",
          "type": "uint256"
        }
      ],
      "stateMutability": "view",
      "type": "function"
    },
    {
      "inputs": [
        {
          "internalType": "address",
          "name": "_spender",
          "type": "address"
        },
        {
          "internalType": "uint256",
          "name": "_amount",
          "type": "uint256"
        }
      ],
      "name": "approve",
      "outputs": [
        {
          "internalType": "bool",
          "name": "",
          "type": "bool"
        }
      ],
      "stateMutability": "nonpayable",
      "type": "function"
    },
    {
      "inputs": [
        {
          "internalType": "address",
          "name": "_account",
          "type": "address"
        }
      ],
      "name": "balanceOf",
      "outputs": [
        {
          "internalType": "uint256",
          "name": "",
          "type": "uint256"
        }
      ],
      "stateMutability": "view",
      "type": "function"
    },
    {
      "inputs": [],
      "name": "getName",
      "outputs": [
        {
          "internalType": "string",
          "name": "",
          "type": "string"
        }
      ],
      "stateMutability": "view",
      "type": "function"
    },
    {
      "inputs": [],
      "name": "getSymbol",
      "outputs": [
        {
          "internalType": "string",
          "name": "",
          "type": "string"
        }
      ],
      "stateMutability": "view",
      "type": "function"
    },
    {
      "inputs": [],
      "name": "totalSupply",
      "outputs": [
        {
          "internalType": "uint256",
          "name": "",
          "type": "uint256"
        }
      ],
      "stateMutability": "view",
      "type": "function"
    },
    {
      "inputs": [
        {
          "internalType": "address",
          "name": "_recipient",
          "type": "address"
        },
        {
          "internalType": "uint256",
          "name": "_amount",
          "type": "uint256"
        }
      ],
      "name": "transfer",
      "outputs": [
        {
          "internalType": "bool",
          "name": "",
          "type": "bool"
        }
      ],
      "stateMutability": "nonpayable",
      "type": "function"
    },
    {
      "inputs": [
        {
          "internalType": "address",
          "name": "_sender",
          "type": "address"
        },
        {
          "internalType": "address",
          "name": "_recipient",
          "type": "address"
        },
        {
          "internalType": "uint256",
          "name": "_amount",
          "type": "uint256"
        }
      ],
      "name": "transferFrom",
      "outputs": [
        {
          "internalType": "bool",
          "name": "",
          "type": "bool"
        }
      ],
      "stateMutability": "nonpayable",
      "type": "function"
    }
  ],
  "bytecode": "0x60806040523480156200001157600080fd5b506040516200153c3803806200153c833981810160405281019062000037919062000204565b82600090805190602001906200004f929190620000cb565b50816001908051906020019062000068929190620000cb565b50806002819055506005816200007f9190620002f3565b600360003373ffffffffffffffffffffffffffffffffffffffff1673ffffffffffffffffffffffffffffffffffffffff1681526020019081526020016000208190555050505062000448565b828054620000d9906200036b565b90600052602060002090601f016020900481019282620000fd576000855562000149565b82601f106200011857805160ff191683800117855562000149565b8280016001018555821562000149579182015b82811115620001485782518255916020019190600101906200012b565b5b5090506200015891906200015c565b5090565b5b80821115620001775760008160009055506001016200015d565b5090565b6000620001926200018c84620002c0565b6200028c565b905082815260208101848484011115620001ab57600080fd5b620001b884828562000335565b509392505050565b600082601f830112620001d257600080fd5b8151620001e48482602086016200017b565b91505092915050565b600081519050620001fe816200042e565b92915050565b6000806000606084860312156200021a57600080fd5b600084015167ffffffffffffffff8111156200023557600080fd5b6200024386828701620001c0565b935050602084015167ffffffffffffffff8111156200026157600080fd5b6200026f86828701620001c0565b92505060406200028286828701620001ed565b9150509250925092565b6000604051905081810181811067ffffffffffffffff82111715620002b657620002b5620003ff565b5b8060405250919050565b600067ffffffffffffffff821115620002de57620002dd620003ff565b5b601f19601f8301169050602081019050919050565b600062000300826200032b565b91506200030d836200032b565b92508262000320576200031f620003a1565b5b828204905092915050565b6000819050919050565b60005b838110156200035557808201518184015260208101905062000338565b8381111562000365576000848401525b50505050565b600060028204905060018216806200038457607f821691505b602082108114156200039b576200039a620003d0565b5b50919050565b7f4e487b7100000000000000000000000000000000000000000000000000000000600052601260045260246000fd5b7f4e487b7100000000000000000000000000000000000000000000000000000000600052602260045260246000fd5b7f4e487b7100000000000000000000000000000000000000000000000000000000600052604160045260246000fd5b62000439816200032b565b81146200044557600080fd5b50565b6110e480620004586000396000f3fe608060405234801561001057600080fd5b50600436106100885760003560e01c806323b872dd1161005b57806323b872dd1461011757806370a0823114610147578063a9059cbb14610177578063dd62ed3e146101a757610088565b8063095ea7b31461008d57806315070401146100bd57806317d7de7c146100db57806318160ddd146100f9575b600080fd5b6100a760048036038101906100a29190610bf3565b6101d7565b6040516100b49190610dc6565b60405180910390f35b6100c5610338565b6040516100d29190610de1565b60405180910390f35b6100e36103ca565b6040516100f09190610de1565b60405180910390f35b61010161045c565b60405161010e9190610ea3565b60405180910390f35b610131600480360381019061012c9190610ba4565b610466565b60405161013e9190610dc6565b60405180910390f35b610161600480360381019061015c9190610b3f565b610837565b60405161016e9190610ea3565b60405180910390f35b610191600480360381019061018c9190610bf3565b610880565b60405161019e9190610dc6565b60405180910390f35b6101c160048036038101906101bc9190610b68565b610a8e565b6040516101ce9190610ea3565b60405180910390f35b60008073ffffffffffffffffffffffffffffffffffffffff168373ffffffffffffffffffffffffffffffffffffffff161415610248576040517f08c379a000000000000000000000000000000000000000000000000000000000815260040161023f90610e83565b60405180910390fd5b81600460003373ffffffffffffffffffffffffffffffffffffffff1673ffffffffffffffffffffffffffffffffffffffff16815260200190815260200160002060008573ffffffffffffffffffffffffffffffffffffffff1673ffffffffffffffffffffffffffffffffffffffff168152602001908152602001600020819055508273ffffffffffffffffffffffffffffffffffffffff163373ffffffffffffffffffffffffffffffffffffffff167f8c5be1e5ebec7d5bd14f71427d1e84f3dd0314c0f7b2291e5b200ac8c7c3b925846040516103269190610ea3565b60405180910390a36001905092915050565b60606001805461034790610fdf565b80601f016020809104026020016040519081016040528092919081815260200182805461037390610fdf565b80156103c05780601f10610395576101008083540402835291602001916103c0565b820191906000526020600020905b8154815290600101906020018083116103a357829003601f168201915b5050505050905090565b6060600080546103d990610fdf565b80601f016020809104026020016040519081016040528092919081815260200182805461040590610fdf565b80156104525780601f1061042757610100808354040283529160200191610452565b820191906000526020600020905b81548152906001019060200180831161043557829003601f168201915b5050505050905090565b6000600254905090565b60008073ffffffffffffffffffffffffffffffffffffffff168473ffffffffffffffffffffffffffffffffffffffff1614156104d7576040517f08c379a00000000000000000000000000000000000000000000000000000000081526004016104ce90610e43565b60405180910390fd5b600073ffffffffffffffffffffffffffffffffffffffff168373ffffffffffffffffffffffffffffffffffffffff161415610547576040517f08c379a000000000000000000000000000000000000000000000000000000000815260040161053e90610e63565b60405180910390fd5b600360008573ffffffffffffffffffffffffffffffffffffffff1673ffffffffffffffffffffffffffffffffffffffff168152602001908152602001600020548211156105c9576040517f08c379a00000000000000000000000000000000000000000000000000000000081526004016105c090610e23565b60405180910390fd5b600460008573ffffffffffffffffffffffffffffffffffffffff1673ffffffffffffffffffffffffffffffffffffffff16815260200190815260200160002060003373ffffffffffffffffffffffffffffffffffffffff1673ffffffffffffffffffffffffffffffffffffffff16815260200190815260200160002054821115610688576040517f08c379a000000000000000000000000000000000000000000000000000000000815260040161067f90610e03565b60405180910390fd5b81600360008673ffffffffffffffffffffffffffffffffffffffff1673ffffffffffffffffffffffffffffffffffffffff16815260200190815260200160002060008282546106d79190610f30565b9250508190555081600360008573ffffffffffffffffffffffffffffffffffffffff1673ffffffffffffffffffffffffffffffffffffffff168152602001908152602001600020600082825461072d9190610eda565b9250508190555081600460008673ffffffffffffffffffffffffffffffffffffffff1673ffffffffffffffffffffffffffffffffffffffff16815260200190815260200160002060003373ffffffffffffffffffffffffffffffffffffffff1673ffffffffffffffffffffffffffffffffffffffff16815260200190815260200160002060008282546107c09190610f30565b925050819055508273ffffffffffffffffffffffffffffffffffffffff168473ffffffffffffffffffffffffffffffffffffffff167fddf252ad1be2c89b69c2b068fc378daa952ba7f163c4a11628f55a4df523b3ef846040516108249190610ea3565b60405180910390a3600190509392505050565b6000600360008373ffffffffffffffffffffffffffffffffffffffff1673ffffffffffffffffffffffffffffffffffffffff168152602001908152602001600020549050919050565b60008073ffffffffffffffffffffffffffffffffffffffff168373ffffffffffffffffffffffffffffffffffffffff1614156108f1576040517f08c379a00000000000000000000000000000000000000000000000000000000081526004016108e890610e63565b60405180910390fd5b600360003373ffffffffffffffffffffffffffffffffffffffff1673ffffffffffffffffffffffffffffffffffffffff16815260200190815260200160002054821115610973576040517f08c379a000000000000000000000000000000000000000000000000000000000815260040161096a90610e23565b60405180910390fd5b81600360003373ffffffffffffffffffffffffffffffffffffffff1673ffffffffffffffffffffffffffffffffffffffff16815260200190815260200160002060008282546109c29190610f30565b9250508190555081600360008573ffffffffffffffffffffffffffffffffffffffff1673ffffffffffffffffffffffffffffffffffffffff1681526020019081526020016000206000828254610a189190610eda565b925050819055508273ffffffffffffffffffffffffffffffffffffffff163373ffffffffffffffffffffffffffffffffffffffff167fddf252ad1be2c89b69c2b068fc378daa952ba7f163c4a11628f55a4df523b3ef84604051610a7c9190610ea3565b60405180910390a36001905092915050565b6000600460008473ffffffffffffffffffffffffffffffffffffffff1673ffffffffffffffffffffffffffffffffffffffff16815260200190815260200160002060008373ffffffffffffffffffffffffffffffffffffffff1673ffffffffffffffffffffffffffffffffffffffff16815260200190815260200160002054905092915050565b600081359050610b2481611080565b92915050565b600081359050610b3981611097565b92915050565b600060208284031215610b5157600080fd5b6000610b5f84828501610b15565b91505092915050565b60008060408385031215610b7b57600080fd5b6000610b8985828601610b15565b9250506020610b9a85828601610b15565b9150509250929050565b600080600060608486031215610bb957600080fd5b6000610bc786828701610b15565b9350506020610bd886828701610b15565b9250506040610be986828701610b2a565b9150509250925092565b60008060408385031215610c0657600080fd5b6000610c1485828601610b15565b9250506020610c2585828601610b2a565b9150509250929050565b610c3881610f76565b82525050565b6000610c4982610ebe565b610c538185610ec9565b9350610c63818560208601610fac565b610c6c8161106f565b840191505092915050565b6000610c84601683610ec9565b91507f496e73756666696369656e7420616c6c6f77616e6365000000000000000000006000830152602082019050919050565b6000610cc4601483610ec9565b91507f496e73756666696369656e742062616c616e63650000000000000000000000006000830152602082019050919050565b6000610d04600e83610ec9565b91507f496e76616c69642073656e6465720000000000000000000000000000000000006000830152602082019050919050565b6000610d44601183610ec9565b91507f496e76616c696420726563697069656e740000000000000000000000000000006000830152602082019050919050565b6000610d84600f83610ec9565b91507f496e76616c6964207370656e64657200000000000000000000000000000000006000830152602082019050919050565b610dc081610fa2565b82525050565b6000602082019050610ddb6000830184610c2f565b92915050565b60006020820190508181036000830152610dfb8184610c3e565b905092915050565b60006020820190508181036000830152610e1c81610c77565b9050919050565b60006020820190508181036000830152610e3c81610cb7565b9050919050565b60006020820190508181036000830152610e5c81610cf7565b9050919050565b60006020820190508181036000830152610e7c81610d37565b9050919050565b60006020820190508181036000830152610e9c81610d77565b9050919050565b6000602082019050610eb86000830184610db7565b92915050565b600081519050919050565b600082825260208201905092915050565b6000610ee582610fa2565b9150610ef083610fa2565b9250827fffffffffffffffffffffffffffffffffffffffffffffffffffffffffffffffff03821115610f2557610f24611011565b5b828201905092915050565b6000610f3b82610fa2565b9150610f4683610fa2565b925082821015610f5957610f58611011565b5b828203905092915050565b6000610f6f82610f82565b9050919050565b60008115159050919050565b600073ffffffffffffffffffffffffffffffffffffffff82169050919050565b6000819050919050565b60005b83811015610fca578082015181840152602081019050610faf565b83811115610fd9576000848401525b50505050565b60006002820490506001821680610ff757607f821691505b6020821081141561100b5761100a611040565b5b50919050565b7f4e487b7100000000000000000000000000000000000000000000000000000000600052601160045260246000fd5b7f4e487b7100000000000000000000000000000000000000000000000000000000600052602260045260246000fd5b6000601f19601f8301169050919050565b61108981610f64565b811461109457600080fd5b50565b6110a081610fa2565b81146110ab57600080fd5b5056fea264697066735822122091640886205403eb9e9016420904224cea3a4a2253d3a5595c3250155ec6967064736f6c63430008000033",
  "linkReferences": {},
  "deployedLinkReferences": {}
}